:020000040000FA
:100000006004002091040000990400009B0400009B
:100010009D0400009F040000A104000000000000F7
:10002000000000000000000000000000A304000029
:10003000A504000000000000A7040000A9040000BF
:10004000AB040000AB040000AB040000AB040000F4
:10005000AB040000AB040000AB040000AB040000E4
:10006000AB040000AB040000AB040000AB040000D4
:10007000AB040000AB040000AB040000AB040000C4
:10040000FFFFFFFFFFFFFFFFFFFFFFFFFEFFFFFFFD
:1004100000F002F800F02CF80AA090E8000C8244EA
:100420008344AAF10107DA4501D100F021F8AFF2C7
:10043000090EBAE80F0013F0010F18BFFB1A43F0C2
:100440000103184770010000800100000023002410
:1004500000250026103A28BF78C1FBD8520728BFD4
:1004600030C148BF0B6070471FB51FBD10B510BD30
:1004700000F02FF81146FFF7F7FF00F093F800F0B7
:100480004DF803B4FFF7F2FF03BC00F051F8000091
:100490000948804709480047FEE7FEE7FEE7FEE718
:1004A000FEE7FEE7FEE7FEE7FEE7FEE70448054954
:1004B000034A054B7047000041050000110400008D
:1004C000600000206004002060000020704770473A
:1004D0007047754600F028F8AE4605006946534659
:1004E00020F00700854618B020B5FFF7DFFFBDE814
:1004F00020404FF000064FF000074FF000084FF08B
:10050000000B21F00701AC46ACE8C009ACE8C0091B
:10051000ACE8C009ACE8C0098D4670470446AFF3AB
:1005200000802046FFF7ADFF004870470000002024
:1005300001491820ABBEFEE726000200704700000C
:100540004CF220501449C8814DF62810C8814FF450
:10055000E97008804FF4881010494864062010495B
:100560000870002048700846C07800F03F0040F056
:100570002000C87000200871487100BF08488079C9
:1005800000F010000028F9D000BF0548807900F085
:100590000C000028F9D1704700200540008004407D
:1005A000004006400EB50248029000200EBD00003B
:1005B00000F00F40C40500000000002060040000AF
:0405C0004C040000E7
:0400000500000411E2
:00000001FF
